:020000040000FA
:060000000A128A11FC2F18
:100F68000A128A11DE270A128A1183120313061C39
:100F7800BE2FBF2FB92F0A128A11C8270A128A1149
:100F8800B92F0A128A11002883120313080888004F
:100F98000130FF007F0888073330F200BB30F100D2
:100FA800DF30F000F00BD62FF10BD62FF20BD62F37
:100FB800DD2F0800831603178801890183160313A0
:100FC800890183120313890183160313870183128E
:100FD80003138701831603138801831203138801FF
:100FE8000730831603138600831203138601080053
:080FF80083010A128A11B42FD3
:04400E00D420FF3F7C
:00000001FF
