:020000040000FA
:060000000A128A11F32F21
:10000C00FF308316031385008601870183120313C7
:10001C008701831603138801080000300A128A1521
:10002C0053260A128A113430F500F130F400F40B27
:10003C001D28F50B1D28222803300A128A15392693
:10004C000A128A110D30F500FB30F400F40B2C2849
:10005C00F50B2C28312803300A128A1539260A127E
:10006C008A111D30F5009130F400F40B3B28F50B90
:10007C003B2803300A128A1539260A128A110230DB
:10008C000A128A1539260A128A1102300A128A15A6
:10009C0039260A128A1108300A128A1539260A12D0
:1000AC008A1100300A128A1539260A128A110C306C
:1000BC000A128A1539260A128A1100300A128A1578
:1000CC0039260A128A1106300A128A1539260A12A2
:1000DC008A110800F80078080319752876288A28F0
:1000EC00F31F79287A288A287009FA007109FB0015
:1000FC007209FC007309FD00FA0A0319FB0A0319C3
:10010C00FC0A0319FD0A92287308FD007208FC0012
:10011C007108FB007008FA00730872047104700413
:10012C00031D99289A28A3280030F3000030F20010
:10013C000030F1000030F00029299630FF007F08D4
:10014C00F900B5280130FF007F08F90701300310D2
:10015C00FD0CFC0CFB0CFA0CFF3E031DAD28FE3015
:10016C007D05031DBA28BB28A828D7280130FF001D
:10017C007F08F9070130FA07003003180130FB073C
:10018C00003003180130FC07003003180130FD0764
:10019C0001300310FD0CFC0CFB0CFA0CFF3E031D94
:1001AC00CF28FF307D05031DDC28DD28BC28E9287D
:1001BC000130F9020130F4000310FA0DFB0DFC0DB7
:1001CC00FD0DF40BE228FC1BEC28ED28F328023083
:1001DC0079020318F228F328DE287918F628F72874
:1001EC00FF28FF30FA05FF30FB057F30FC05FF30A0
:1001FC00FD050310F90C7908F400F501F601F7017F
:10020C0018300310F40DF50DF60DF70DFF3E031D20
:10021C0007297408FA047508FB047608FC047708AF
:10022C00FD04780803191B291C292129F31F1F29F8
:10023C0020292129FD177D08F3007C08F2007B089A
:10024C00F1007A08F00008000A128A1106200A123E
:10025C008A110A128A1502260A128A110A128A11A6
:10026C0013200A128A1100300A128A15C1260A12AA
:10027C008A11710883120313E6007008E500660802
:10028C008600823083120313DF00DD30DE00DE0BCC
:10029C004D29DF0B4D290A128A1512260A128A11D2
:1002AC00F401F40A01300A128A1532270A128A1153
:1002BC0001300A128A1575260A128A11F401F40A01
:1002CC0002300A128A1532270A128A1110300A12C9
:1002DC008A1575260A128A11023083120313E00064
:1002EC000430DF00B930DE00DE0B7A29DF0B7A290F
:1002FC00E00B7A2981290A128A1512260A128A1110
:10030C00F401F40A01300A128A1532270A128A11F2
:10031C0030300A128A1575260A128A11F401F40A71
:10032C0002300A128A1532270A128A111E300A125A
:10033C008A1575260A128A11023083120313E00003
:10034C000430DF00B930DE00DE0BAA29DF0BAA294E
:10035C00E00BAA29B12900300A128A15C1260A120B
:10036C008A11710883120313E4007008E300630818
:10037C00F0006408F100F201F30100300A128A1156
:10038C0070200A128A11730883120313A7007208D3
:10039C00A6007108A5007008A4003F30A30000302F
:1003AC00A2000030A1000030A0000A128A11922491
:1003BC000A128A11831203132308C1002208C000F9
:1003CC002108BF002008BE004430BD007F30BC00B7
:1003DC00C030BB000030BA000A128A11B5220A12D2
:1003EC008A11831203133D08D7003C08D6003B0842
:1003FC00D5003A08D4000A128A1584270A128A11E9
:10040C000A128A1512260A128A11F401F40A013012
:10041C000A128A1532270A128A1128300A128A15F2
:10042C0075260A128A11023083120313E00004307D
:10043C00DF00B930DE00DE0B212ADF0B212AE00BB6
:10044C00212A282A0A128A1512260A128A11F40164
:10045C00F40A02300A128A1532270A128A1128303D
:10046C000A128A1575260A128A1183120313E501E2
:10047C00E601043083120313E0000C30DF0033304C
:10048C00DE00DE0B472ADF0B472AE00B472A0A1255
:10049C008A151F260A128A11013083120313E507ED
:1004AC000318E60A0030E607003066020F30031925
:1004BC006502031C622A632A3F2AE501E601043027
:1004CC0083120313E0000C30DF003330DE00DE0B50
:1004DC006D2ADF0B6D2AE00B6D2A0A128A152C2669
:1004EC000A128A11013083120313E5070318E60A76
:1004FC000030E607003066020F3003196502031C5A
:10050C00882A892A652A0A128A1512260A128A1141
:10051C00F401F40A02300A128A1532270A128A11DF
:10052C0065300A128A15F9260A128A1153300A12FA
:10053C008A15F9260A128A11033083120313E0007C
:10054C000830DF007630DE00DE0BAA2ADF0BAA2A89
:10055C00E00BAA2A000039290A128A1100288312FA
:10056C00031341088039FF007F08CB004108C2000B
:10057C004207FF007F08D200C01FC52AC62AC72A1F
:10058C00521452080319CB2ACC2ADC2A520A031D16
:10059C00D02AD12AD92A0030C1000030C000003046
:1005AC00BF000030BE00C017C101E42A0030C100FA
:1005BC000030C0000030BF000030BE003D08803964
:1005CC00FF007F08CB063D08C2004207FF007F08F2
:1005DC00D300BC1FF22AF32AF42A5314530803192C
:1005EC00F82AF92A092B530A031DFD2AFE2A062B89
:1005FC000030BD000030BC000030BB000030BA0041
:10060C00BC17BD01112B0030BD000030BC00003008
:10061C00BB000030BA003D083C043B043A04031D07
:10062C00182B192B322B0030C1000030C0000030C9
:10063C00BF000030BE008030C0047F30C1044B08C6
:10064C00FF007F08C1044108BD004008BC003F0802
:10065C00BB003E08BA00912C5208031D362B372BD9
:10066C00402B0030BD000030BC000030BB0000301F
:10067C00BA00912C5208C200C3014308C5005308AC
:10068C004202C400031CC50344087F3ECC0045084D
:10069C000318013E003ECD004108CA004008C900C5
:1006AC003F08C8003E08C7000030C1000030C00041
:1006BC000030BF000030BE000030D1000030D00050
:1006CC000030CF000030CE00D301B62B53080319F5
:1006DC00702B712B912B0130C2000310C70DC80D6C
:1006EC00C90DCA0DC20B732B0130C2000310BE0D15
:1006FC00BF0DC00DC10DC20B7C2BD11F862B872BC0
:10070C00882B3E140130C2000310CE0DCF0DD00D3E
:10071C00D10DC20B8A2B3D084A02031D9F2B3C08AE
:10072C004902031D9F2B3B084802031D9F2B3A08CF
:10073C004702031CA22BA32BB22B51173A08C7025A
:10074C003B08031C3B0FC8023C08031C3C0FC902AE
:10075C003D08031C3D0FCA020130FF007F08D30780
:10076C001A305302031CBB2BBC2B6C2B4A084904BC
:10077C00480447040319C32BC42BE32B4E14E32B5F
:10078C000130C2000310BE0DBF0DC00DC10DC20B58
:10079C00C82BD11FD22BD32BD42B3E140130C2002B
:1007AC000310CE0DCF0DD00DD10DC20BD62BFF30BB
:1007BC00CC070318CD0AFF30CD07C01FE62BE72B63
:1007CC00C62BD301D11FEB2BEC2B082CFF304E0585
:1007DC00C200FF304F05C300FF305005C4007F300E
:1007EC005105C50045084404430442040319FF2B7A
:1007FC00002C032CD301D30A082C3E1C062C072CEE
:10080C00082C002C530803190C2C0D2C3E2C0130F9
:10081C00BE07003003180130BF0700300318013049
:10082C00C007003003180130C107411C1E2C1F2CBF
:10083C003E2C3E08C2003F08C3004008C4004108DB
:10084C00C5000130C600450DC50CC40CC30CC20C50
:10085C00C60B292C4508C1004408C0004308BF0042
:10086C004208BE000130CC070318CD0A0030CD077A
:10087C004D08803AFF0080307F02031D472CFF306B
:10088C004C02031C4A2C4B2C592CFF3083120313A3
:10089C00CC000030CD000030C1000030C000003072
:1008AC00BF000030BE00831203134D08803AFF00D6
:1008BC0080307F02031D642C01304C020318672C1E
:1008CC00682C752C83120313CC01CD010030C100B0
:1008DC000030C0000030BF000030BE00CB018312DE
:1008EC0003134C08FF007F08D200521C7E2C7F2C77
:1008FC00812CC017852C7F30FF007F08C005520863
:10090C00C2000310420CFF007F08C1004B08FF001F
:10091C007F08C104292B0800831203132308803994
:10092C00FF007F08AD002308A8002807FF007F0800
:10093C00B300A21FA22CA32CA42C3314330803192C
:10094C00A82CA92CB82C330A031DAD2CAE2CB62C1C
:10095C000030A3000030A2000030A1000030A00045
:10096C00A217C02C0030A3000030A2000030A10060
:10097C000030A00027088039FF007F08AD0627084B
:10098C00A8002807FF007F08B200A61FCE2CCF2C92
:10099C00D02C321432080319D42CD52CE42C320A66
:1009AC00031DD92CDA2CE22C0030A7000030A60055
:1009BC000030A5000030A400A617EC2C0030A700D6
:1009CC000030A6000030A5000030A4003208031946
:1009DC00F02CF12CF62C3308031DF52CF62CFF2CE7
:1009EC000030A3000030A2000030A1000030A000B5
:1009FC00F22F2008FF007F08F00026080A128A1543
:100A0C009A260A128A11710883120313B90070080E
:100A1C00B8003808A800A901AA01AB012B08B10045
:100A2C002A08B0002908AF002808AE003908A80031
:100A3C00A901AA01AB012B08B7002A08B6002908A6
:100A4C00B5002808B4002108FF007F08F000250835
:100A5C000A128A159A260A128A1171088312031334
:100A6C00B9007008B8003808A800A901AA01AB01A8
:100A7C002808AE07290803110318013E0319472D56
:100A8C00AF072A0803110318013E03194E2DB007B6
:100A9C002B0803110318013E0319552DB107390812
:100AAC00A800A901AA01AB012808B4072908031161
:100ABC000318013E0319632DB5072A080311031807
:100ACC00013E03196A2DB6072B0803110318013ECA
:100ADC000319712DB7072208FF007F08F0002408C6
:100AEC000A128A159A260A128A11710883120313A4
:100AFC00B9007008B8003808A800A901AA01AB0118
:100B0C002808AE07290803110318013E03198F2D7D
:100B1C00AF072A0803110318013E0319962DB007DD
:100B2C002B0803110318013E03199D2DB107390839
:100B3C00A800A901AA01AB012808B40729080311D0
:100B4C000318013E0319AB2DB5072A08031103182E
:100B5C00013E0319B22DB6072B0803110318013EF1
:100B6C000319B92DB7070830A8000310AE0DAF0D4F
:100B7C00B00DB10DA80BBB2D2108FF007F08F000B4
:100B8C0024080A128A159A260A128A1171088312ED
:100B9C000313B9007008B8003808A8003908A90078
:100BAC00AA01AB012808AE07290803110318013E5E
:100BBC000319E12DAF072A0803110318013E03198D
:100BCC00E82DB0072B0803110318013E0319EF2D74
:100BDC00B1072008FF007F08F00025080A128A15CB
:100BEC009A260A128A11710883120313B90070082D
:100BFC00B8003808A8003908A900AA01AB012808D8
:100C0C00AE07290803110318013E03190E2EAF0776
:100C1C002A0803110318013E0319152EB0072B08DF
:100C2C0003110318013E03191C2EB1070830A8004C
:100C3C000310AE0DAF0DB00DB10DA80B1E2E20087C
:100C4C00FF007F08F00024080A128A159A260A125F
:100C5C008A11710883120313B9007008B8003808A0
:100C6C00A8003908A900AA01AB012808AE07290879
:100C7C0003110318013E0319442EAF072A08031170
:100C8C000318013E03194B2EB0072B080311031850
:100C9C00013E0319522EB1072108FF007F08F00016
:100CAC0026080A128A159A260A128A1171088312CA
:100CBC000313B9007008B8003808A8003908A90057
:100CCC00AA01AB012808B407290803110318013E37
:100CDC000319712EB5072A0803110318013E0319D5
:100CEC00782EB6072B0803110318013E03197F2E2B
:100CFC00B7072208FF007F08F00025080A128A15A2
:100D0C009A260A128A11710883120313B90070080B
:100D1C00B8003808A8003908A900AA01AB012808B6
:100D2C00B407290803110318013E03199E2EB507B9
:100D3C002A0803110318013E0319A52EB6072B0828
:100D4C0003110318013E0319AC2EB7072208FF004C
:100D5C007F08F00026080A128A159A260A128A11B0
:100D6C00710883120313B9007008B8003808A80082
:100D7C003908A900AA01AB0108300310A80DA90D70
:100D8C00AA0DAB0DFF3E031DC32E2808B40729087E
:100D9C0003110318013E0319D42EB5072A080311B9
:100DAC000318013E0319DB2EB6072B080311031899
:100DBC00013E0319E22EB7072E08A8002F08A90040
:100DCC003008AA003108AB0018300310AB0CAA0C89
:100DDC00A90CA80CFF3E031DEB2E2808B40729080C
:100DEC0003110318013E0319FC2EB5072A08031141
:100DFC000318013E0319032FB6072B080311031820
:100E0C00013E03190A2FB7070830A8000310AE0DD6
:100E1C00AF0DB00DB10DA80B0C2F33083207A80085
:100E2C00A901A90D2808823EB80029080318013E23
:100E3C00FF3EB9003E2F0130A8000310B40DB50DD4
:100E4C00B60DB70DA80B232FB11F2D2F2E2F2F2F23
:100E5C0034140130A8000310AE0DAF0DB00DB10D60
:100E6C00A80B312FFF30B8070318B90AFF30B907A8
:100E7C00B61F412F422F212FB201B11F462F472FF2
:100E8C00632FFF302E05A800FF302F05A900FF307F
:100E9C003005AA007F303105AB002B082A04290449
:100EAC00280403195A2F5B2F5E2FB201B20A632F4D
:100EBC00341C612F622F632F5B2F32080319672FAD
:100ECC00682F992F0130B407003003180130B50793
:100EDC00003003180130B607003003180130B70793
:100EEC00371C792F7A2F992F3408A8003508A900C0
:100EFC003608AA003708AB000130AC002B0DAB0C48
:100F0C00AA0CA90CA80CAC0B842F2B08B7002A0830
:100F1C00B6002908B5002808B4000130B80703183A
:100F2C00B90A0030B9073908803AFF0080307F02D7
:100F3C00031DA22FFF303802031CA52FA62FB12FA3
:100F4C007F3083120313B7008030B6000030B50039
:100F5C000030B400E62F831203133908803AFF00E7
:100F6C0080307F02031DBC2F013038020318BF2FC5
:100F7C00C02FCC2F003083120313B7000030B60003
:100F8C000030B5000030B400AD01E62F831203131E
:100F9C003808FF007F08B300FF30B405FF30B505FB
:100FAC007F30B6050030B705331CDD2FDE2FDF2F69
:100FBC00B6173308A8000310280CFF007F08B700F1
:100FCC002D08FF007F08B7043708A3003608A200DD
:100FDC003508A1003408A00008008313A030840059
:100FEC00B4300A128A150A260A128A1183010A12CF
:100FFC008A112A2908308A000408840A82070034DE
:10100C004C34613462346F347234613474346F3400
:10101C00723469346F34203423343334003459340B
:10102C0065346634723479342034533461346A3420
:10103C007134753469347934003444346934673428
:10104C006934743461346C342034323400345634A2
:10105C006F346C34743461346A3465340034313434
:0A106C00383437343434383400349B
:101C04008130831203139F00831603139F0108007E
:101C140064008001840A04060319003404060B2EB0
:101C240000300A128A1539260A128A1501300A125E
:101C34008A1539260A128A15080001300A128A15F3
:101C440039260A128A1508300A128A1539260A1208
:101C54008A15080001300A128A1539260A128A15D3
:101C64000C300A128A1539260A128A150800F30064
:101C740083120313081173080A128A1553260A12D1
:101C84008A158312031388150B30F2006230F100B9
:101C9400F10B4A2EF20B4A2E000083120313881113
:101CA4000800F000701C572E582E5C2E831203136C
:101CB40008165F2E831203130812F01C622E632E83
:101CC400652E8816662E8812701D692E6A2E6C2E5B
:101CD40008176D2E0813F01D702E712E732E8817A1
:101CE400742E88130800F700F501F6018C2E750890
:101CF400770784000A128A1500200A128A150A122C
:101D04008A15F9260A128A150130F5070318F60A0E
:101D14000030F6077508770784000A128A15002038
:101D24000A128A15003A031D982E992E792E08005E
:101D3400F800F401F5017008F200F3017208F600EE
:101D44007308F700781CA72EA82EAE2E7608F40789
:101D54000318F50A7708F50701300310F60DF70D9F
:101D6400FF3E031DAF2E0310F80C7808031DBB2E95
:101D7400BC2EA42E7508F1007408F0000800F400CD
:101D840008307402031CC72EC82ECB2EF001F101BB
:101D9400F82EC530FF007F08831203139F057408D3
:101DA400F20002300310F20DFF3E031DD42E031087
:101DB400720DFF007F089F040630F3003030F200FC
:101DC400F20BE22EF30BE22E0000831203139F1496
:101DD4009F18ED2EEE2EEA2E1E08F200F301720873
:101DE400F300F2017208F0007308F1000800F40037
:101DF40074080F39FF007F08F2007408F039FF00FF
:101E04007F08F3008312031308157308F1000430EC
:101E14000310F10CFF3E031D0A2F71080A128A15E4
:101E240053260A128A158312031388151A30F100F7
:101E3400F10B1A2F000083120313881172080A127F
:101E44008A1553260A128A158312031388151A3029
:101E5400F100F10B2B2F00008312031388110800EB
:101E6400F6007603031D372F382F5B2F74087F3E4F
:101E7400FF007F08F9007908F50004300310F50C21
:101E8400FF3E031D402F7508FF007F08F700790807
:101E94000F39FF007F08F80077080A128A153926DF
:101EA4000A128A1578080A128A1539260A128A151E
:101EB400832F02307606031D602F612F832F740851
:101EC400BF3EFF007F08F9007908F50004300310D5
:101ED400F50CFF3E031D692F7508FF007F08F7000E
:101EE40079080F39FF007F08F80077080A128A156D
:101EF40039260A128A1578080A128A1539260A120E
:101F04008A150800031083120313560D570DFF00A2
:101F14007F08DD005D08031D902F912F9A2F00305C
:101F2400D7000030D6000030D5000030D400FF2F99
:101F34005408D8005508D9005608DA005708DB00C1
:101F44001F300310DB0CDA0CD90CD80CFF3E031D38
:101F5400A32F5808FF007F08DC00D617FF30D405F4
:101F6400FF30D505FF30D6050030D7059630DD02A9
:101F7400DD1FBD2FBE2FD82F5D08803A973E031872
:101F8400C42FC52FC62F912F01300310D70CD60CA8
:101F9400D50CD40CFF3E031DC72F0130FF007F0872
:101FA400DD07031DD62FD72FC62FEF2F20305D025C
:101FB400031CDD2FDE2FEA2F912F0130D8000310F0
:101FC400D40DD50DD60DD70DD80BE12F0130DD0280
:101FD4005D08031DEE2FEF2FDF2F5C080319F32F8D
:101FE400F42FFF2FD409D509D609D709D40A031928
:0C1FF400D50A0319D60A0319D70A080001
:04400E00D420FF3F7C
:00000001FF
