:020000040000FA
:060000000A128A11FC2F18
:100F06008316031788018901831603138901831247
:100F160003138901831603138701831203138701C1
:100F2600831603138801831203138801073083167F
:100F36000313860083120313860108000A128A111E
:100F460083270A128A1183120313051CAB2FAC2FB9
:100F5600BB2F803086000230F2000430F100BA3038
:100F6600F000F00BB42FF10BB42FF20BB42F0000EE
:100F760083120313851CC02FC12FCF2F8601023089
:100F8600F2000430F100BA30F000F00BC82FF10B7C
:100F9600C82FF20BC82F000083120313051DD42F90
:100FA600D52FE42F403086000230F2000430F100E5
:100FB600BA30F000F00BDD2FF10BDD2FF20BDD2F39
:100FC600000083120313851DE92FEA2FA62F860141
:100FD6000230F2000430F100BA30F000F00BF12FCD
:100FE600F10BF12FF20BF12F0000A62F0A128A1136
:0A0FF600002883010A128A11A12FBE
:04400E00D420FF3F7C
:00000001FF
