:020000040000FA
:060000000A128A11FA2F1A
:100E1000831203130808031D0E2F0F2F162F080827
:100E200088000130FF007F088807252F0808F000A0
:100E300070078800881F1D2F1E2F242F0616FF30D5
:100E40008800F801F901252F061208008312031308
:100E50000708031D2C2F2D2F342F07088700013082
:100E6000FF007F088707432F0708F00070078700FF
:100E7000871F3B2F3C2F422F8615FF308700F8013C
:100E8000F901432F86110800831603178801890191
:100E90008316031389018312031389018316031335
:100EA00087018312031387018316031388018312BA
:100EB000031388010730831603138600831203137C
:100EC0008601080001308312031389000230F2000A
:100ED0000430F100BA30F000F00B6C2FF10B6C2FE6
:100EE000F20B6C2F0000F301F401831203130908C5
:100EF000F000700789000330F2000830F10077300D
:100F0000F000F00B812FF10B812FF20B812F0130BC
:100F1000F3070318F40A0030F4077408803AFF005E
:100F200080307F02031D962F03307302031C992F1C
:100F30009A2F752F0130F8000030F9008312031347
:100F400088018601870108000A128A1144270A12C3
:100F50008A1183120313061CAE2FAF2FBA2F780805
:100F60007904031DB42FB52FBA2F0A128A116227F4
:100F70000A128A1183120313861CBF2FC02FD82F89
:100F8000780879040319C52FC62FD82F0A128A11A1
:100F900026270A128A110230F7000430F600BA3010
:100FA000F500F50BD12FF60BD12FF70BD12F000049
:100FB00083120313061DDD2FDE2FA92F7808790475
:100FC0000319E32FE42FA92F0A128A1108270A1206
:100FD0008A110230F7000430F600BA30F500F50B44
:100FE000EF2FF60BEF2FF70BEF2F0000A92F0A12B0
:100FF0008A110028F801F90183010A128A11A42F2D
:04400E00D420FF3F7C
:00000001FF
