:020000040000FA
:060000000A128A11FC2F18
:100E26008130831203139F00831603139F0108006A
:100E3600FF3083160313850086018701831203138F
:100E460087018316031388018312031388010800A0
:100E5600F401F501701C302F312F372F7208F4077B
:100E66000318F50A7308F50701300310F20DF30DA8
:100E7600FF3E031D382F01300310F10CF00CFF3E2E
:100E8600031D3F2F70087104031D4A2F4B2F2D2F72
:100E96007508F1007408F0000800F40008307402C8
:100EA600031C562F572F5A2FF001F101872FC530FB
:100EB600FF007F08831203139F057408F2000230B7
:100EC6000310F20DFF3E031D632F0310720DFF008A
:100ED6007F089F040630F3003030F200F20B712FCA
:100EE600F30B712F0000831203139F149F187C2F9E
:100EF6007D2F792F1E08F200F3017208F300F2012C
:100F06007208F0007308F10008000A128A111B2704
:100F16000A128A110A128A1113270A128A1100303C
:100F26000A128A1150270A128A117108F9007008EC
:100F3600F80079088312031386000830F700C930D9
:100F4600F600F60BA42FF70BA42FA92F7908F100B2
:100F56007808F0000530F2000030F3000A128A111A
:100F66002B270A128A117008F6007108F7000A305A
:100F76000310F70CF60CFF3E031DBB2F7608FA0094
:100F86007708FB0000307B02113003197A02031840
:100F9600CD2FCE2FD32F0130831203138800922F2B
:100FA60000307B02113003197A02031CDB2FDC2F81
:100FB600EA2F00307B02173003197A020318E42F58
:100FC600E52FEA2F0330831203138800922F003097
:100FD6007B02173003197A02031CF22FF32FF82F26
:100FE6000730831203138800922F922F0A128A1158
:0A0FF600002883010A128A11882FD7
:04400E00D420FF3F7C
:00000001FF
