:020000040000FA
:060000000A128A11FC2F18
:100F26008230F100DD30F000F00B972FF10B972F98
:100F36009C2F83120313080888000130FF007F08E6
:100F4600880708000230F2000430F100BA30F000E1
:100F5600F00BAB2FF10BAB2FF20BAB2F0000831274
:100F66000313080888000130880208000A128A1153
:100F7600D8270A128A1183120313851CC32FC42F84
:100F8600C92F0A128A1193270A128A118312031390
:100F9600051DCE2FCF2FBE2F0A128A11A5270A12A2
:100FA6008A11BE2F0A128A11002883160317880198
:100FB6008901033083160313850083120313850109
:100FC6008316031386018312031386018316031304
:100FD6008701831203138701831603138801831283
:100FE60003138801831603138901831203138901EE
:0A0FF600080083010A128A11B92FC6
:04400E00D420FF3F7C
:00000001FF
