:020000040000FA
:060000000A128A11FC2F18
:100F1A008130831203139F00831603139F01080075
:100F2A00FF3083160313850086018701831203139A
:100F3A00870108000A128A1195270A128A110A12D1
:100F4A008A118D270A128A1100300A128A11C427BF
:100F5A000A128A117108F8007008F70078088312DB
:100F6A00031386008230F600DD30F500F50BBB2F47
:100F7A00F60BBB2FC02FA92F0A128A110028F400E2
:100F8A0008307402031CCA2FCB2FCE2FF001F101B7
:100F9A00FB2FC530FF007F08831203139F057408D7
:100FAA00F20002300310F20DFF3E031DD72F03108B
:100FBA00720DFF007F089F040630F3003030F20004
:100FCA00F20BE52FF30BE52F0000831203139F1496
:100FDA009F18F02FF12FED2F1E08F200F30172086F
:100FEA00F300F2017208F0007308F10008008301AF
:060FFA000A128A119F2F6C
:04400E00D420FF3F7C
:00000001FF
