:020000040000FA
:060000000A128A11FC2F18
:100F1E000230F2000430F100BA30F000F00B952FE1
:100F2E00F10B952FF20B952F000083120313060879
:100F3E0086000130860208000230F2000430F10013
:100F4E00BA30F000F00BA92FF10BA92FF20BA92F3D
:100F5E00000083120313060886000130FF007F088D
:100F6E00860708000A128A11D8270A128A118312DC
:100F7E000313851CC32FC42FC92F0A128A11A3274E
:100F8E000A128A1183120313051DCE2FCF2FBE2FE7
:100F9E000A128A118F270A128A11BE2F0A128A117B
:100FAE000028831603178801890103308316031363
:100FBE0085008312031385018316031386018312A2
:100FCE00031386018316031387018312031387010C
:100FDE0083160313880183120313880183160313E8
:100FEE008901831203138901080083010A128A11F1
:020FFE00B92F09
:04400E00D420FF3F7C
:00000001FF
