:020000040000FA
:060000000A128A11FC2F18
:100F34008130831203139F00831603139F0108005B
:100F4400FF30831603138500860187010A128A1174
:100F54009A270A128A1100300A128A11C8270A1223
:100F64008A117108F8007008F700780883120313D7
:100F740086008230F600DD30F500F50BBF2FF60B4E
:100F8400BF2FC42FAD2F0A128A110028F400083095
:100F94007402031CCE2FCF2FD22FF001F101FB2FAF
:100FA400C530FF007F08831203139F057408F20005
:100FB40002300310F20DFF3E031DDB2F0310720DF0
:100FC400FF007F089F040630F3003030F200F20B7C
:100FD400E92FF30BE92F0000831203139F149F18CA
:100FE400F42FF52FF12F1E08F100831603131E08AA
:0C0FF400F000080083010A128A11A22FED
:04400E00D420FF3F7C
:00000001FF
