:020000040000FA
:060000000A128A11FC2F18
:100C40000A128A113C260A128A1183160313111400
:100C500008000A128A113C260A128A11831603130D
:100C6000111508000A128A113C260A128A1170080E
:100C70008312031393000800831603131419412EE3
:100C8000422E3C2E11081F39031D472E482E3C2EA4
:100C90000800831603178801890183160313860150
:100CA000880183120313860188010030A3000130FC
:100CB000A2008630A100A030A0000A128A1191265D
:100CC0000A128A1108000A128A113C260A128A1195
:100CD0008316031391150A128A113C260A128A11EF
:100CE000831203131308F200F3017208F40073086F
:100CF000F5000A128A113C260A128A117003710447
:100D0000031D832E842E882E8316031391128B2E9F
:100D100083160313911611167508F1007408F0007C
:100D200008002830831203139400831603139101E3
:100D3000831203132008A4002108A5002208A6009E
:100D40002308A70002300310A40DA50DA60DA70DC2
:100D5000FF3E031DA32E2708F3002608F2002508F6
:100D6000F1002408F0000030F7007A30F60012306D
:100D7000F5000030F4000A128A11C9260A128A11FD
:100D80007008FF3E8316031393009401871507161E
:100D900008000030FC000030FB000030FA0000309A
:100DA000F90073087204710470040319D82ED92E47
:100DB000262FFD01FD0AE92E0130F8000310F00D89
:100DC000F10DF20DF30DF80BDE2E0130FF007F0860
:100DD000FD07F31FEC2EED2EDC2E0130F800031082
:100DE000F90DFA0DFB0DFC0DF80BEF2E73087702D1
:100DF000031D042F72087602031D042F710875026B
:100E0000031D042F70087402031C072F082F172FCF
:100E10007008F4027108031C710FF5027208031CBC
:100E2000720FF6027308031C730FF7027914013076
:100E30000310F30CF20CF10CF00CFF3E031D182F05
:100E40000130FD02031D252F262FED2E7C08F30017
:100E50007B08F2007A08F1007908F00008000A1215
:100E60008A1149260A128A110A128A1120260A12A8
:100E70008A115030F0000030F1000A128A11322637
:100E80000A128A11831203130808A800A90128086E
:100E9000F0002908F1000A128A1132260A128A117A
:100EA0000A128A1129260A128A11033083120313A7
:100EB000AA000830A9007630A800A80B5D2FA90B66
:100EC0005D2FAA0B5D2F00000A128A1120260A123C
:100ED0008A115030F0000030F1000A128A113226D7
:100EE0000A128A11831203130708A800A90128080F
:100EF000F0002908F1000A128A1132260A128A111A
:100F00000A128A1129260A128A1103308312031346
:100F1000AA000830A9007630A800A80B8D2FA90BD5
:100F20008D2FAA0B8D2F00000A128A1120260A127B
:100F30008A115030F0000030F1000A128A11322676
:100F40000A128A11831203130808A800A9012808AD
:100F5000F0002908F1000A128A1132260A128A11B9
:100F60000A128A1129260A128A11033083120313E6
:100F7000AA000830A9007630A800A80BBD2FA90B45
:100F8000BD2FAA0BBD2F00000A128A1120260A12BB
:100F90008A115130F0000030F1000A128A11322615
:100FA0000A128A110030F000F1000A128A11632639
:100FB0000A128A1170088312031388000A128A1118
:100FC00029260A128A11033083120313AA0008305B
:100FD000A9007630A800A80BEB2FA90BEB2FAA0BCA
:100FE000EB2F00000130FF007F08831203138607F8
:100FF000342F0A128A11002883010A128A112F2F16
:04400E00D420FF3F7C
:00000001FF
