:020000040000FA
:060000000A128A11FC2F18
:100D20000A128A11AC260A128A11831603131114AF
:100D300008000A128A11AC260A128A1183160313BC
:100D4000111508000A128A11AC260A128A117008BD
:100D50008312031393000800831603131419B12E92
:100D6000B22EAC2E11081F39031DB72EB82EAC2E93
:100D700008000A128A11AC260A128A11831603137C
:100D800091150A128A11AC260A128A1183120313D2
:100D90001308F200F3017208F4007308F5000A1258
:100DA0008A11AC260A128A11700871040319D92E0F
:100DB000DD2E831603139116E02E83160313911272
:100DC00011167508F1007408F0000800283083122D
:100DD0000313940083160313910183120313200855
:100DE000A4002108A5002208A6002308A7000230BD
:100DF0000310A40DA50DA60DA70DFF3E031DF82E93
:100E00002708F3002608F2002508F1002408F00066
:100E10000030F7007A30F6001230F5000030F400B0
:100E20000A128A111E270A128A117008FF3E8316C1
:100E30000313930094018715071608000030FC0087
:100E40000030FB000030FA000030F9007308720433
:100E50007104700403192D2F2E2F7B2FFD01FD0A25
:100E60003E2F0130F8000310F00DF10DF20DF30DDF
:100E7000F80B332F0130FF007F08FD07F31F412FD0
:100E8000422F312F0130F8000310F90DFA0DFB0D40
:100E9000FC0DF80B442F73087702031D592F7208BD
:100EA0007602031D592F71087502031D592F700812
:100EB0007402031C5C2F5D2F6C2F7008F402710804
:100EC000031C710FF5027208031C720FF6027308FF
:100ED000031C730FF702791401300310F30CF20CAA
:100EE000F10CF00CFF3E031D6D2F0130FD02031DC0
:100EF0007A2F7B2F422F7C08F3007B08F2007A08C0
:100F0000F1007908F0000800831603138113FF3005
:100F1000860088018312031388010030A30001308A
:100F2000A2008630A100A030A0000A128A11E62695
:100F30000A128A110A128A1190260A128A11303076
:100F4000F0000030F1000A128A11A2260A128A115A
:100F5000831203130608A800A9012808F000290835
:100F6000F1000A128A11A2260A128A110A128A11A3
:100F700099260A128A11033083120313AA0008303B
:100F8000A9007630A800A80BC32FA90BC32FAA0B6A
:100F9000C32F00000A128A1190260A128A113130DA
:100FA000F0000030F1000A128A11A2260A128A11FA
:100FB0000030F000F1000A128A11B9260A128A11D3
:100FC00070088312031388000A128A1199260A12E4
:100FD0008A11033083120313AA000830A900763067
:100FE000A800A80BF12FA90BF12FAA0BF12F0000DD
:100FF0009A2F0A128A11002883010A128A11842F5B
:04400E00D420FF3F7C
:00000001FF
